:020000040800F2
:10000000B0050020D5000008691100087905000836
:1000100000000000000000000000000000000000E0
:10002000000000000000000000000000851400082F
:100030000000000000000000B113000811150008C6
:10004000E7000008E7000008E7000008E7000008F4
:10005000E7000008E7000008E7000008E7000008E4
:1000600000000000E7000008E700000800000000B2
:10007000E70000084D150008E70000080000000038
:10008000E7000008E700000800000000E7000008A3
:1000900000000000E7000008E7000008E700000893
:1000A00000000000E7000008E7000008E700000883
:1000B000D117000800000000000000000000000050
:1000C0000348854600F046F80048004779010008DB
:1000D000B00500200448804704480047FEE7FEE7DB
:1000E000FEE7FEE7FEE7FEE715150008C100000881
:1000F000D2B201E00270401C491EFBD270470022C0
:10010000F6E710B513460A4604461946FFF7F0FF16
:10011000204610BD70B50446002903D000202022DF
:10012000012310E0002801D00020C043C046C04693
:100130000DE02546D5408D4205D30D469540641B04
:100140001D46954040191546521E002DF1DC2146F2
:1001500070BD0000064C0125064E05E0E36807CCA3
:100160002B430C3C98471034B442F7D3FFF7ACFF55
:10017000841F0008A41F000880B500200749012241
:10018000D306C3580B50001DC028F8D150070449AE
:10019000086001F0C1FC002080BDC04600000020C6
:1001A00008ED00E0B0B588B00024079406940594EB
:1001B000049403200390012502950520000702A95D
:1001C00000F0A6FB00F02EFA280500F08FFA01944B
:1001D00000F0E0F90190204600F0EAF900F05CFA46
:1001E00000F0D4F90028FBD10124204600F092FF52
:1001F000019800F0DDF900F027FA00F019FA00F09C
:100200003BFA00F02BFA00F02FFA00F03DFA00F074
:10021000F7F900F0EBF900F0C3F9032000F0C8F99A
:1002200000F0CEF900F0DAF900F0D2F900F0A6F90A
:10023000204600F06FFF00F0EDF908B0B0BD0000FF
:10024000F0B581B000F034FA0124204600F04EFAF7
:100250009021204600F06AFA02268021304600F004
:1002600065FA03251E49284600F060FA00F046FDB5
:1002700000F04CFD00F054FD1A48411C204600F0EF
:10028000A1FA194F2046394600F0A6FA1749304620
:1002900000F098FA3046394600F09EFA1148811D68
:1002A000284600F08FFA1249284600F095FA00F02F
:1002B00051FE00F063FE00F083FE00F07BFE06219D
:1002C000304600F061FA304600F048FA28462146F0
:1002D00000F05AFA284600F041FA01B0F0BDC046DD
:1002E000202500007601002004440040C8000020C2
:1002F0004024014010B586B00124204600F0A2FB46
:1003000000200590049003900320029001940220A5
:10031000009005200007694600F0FAFA06B010BD0B
:10032000F0B58FB00F20C6013046803000F0DEF906
:100330000124204600F086FB0225284600F082FBBF
:1003400000270E970A9709970B970D970C970E9514
:100350000A9509960B9508970797069705970497AE
:100360000397029701970520000709AE314600F078
:10037000CFFA0E950A95032009900D970C970B95CF
:100380003B48314600F0C4FA05970394029470206C
:10039000019006970797089725022846F4300490A5
:1003A000564E01AF304621463A4600F077FD102107
:1003B00030463A4600F072FD304629463A4600F093
:1003C0006DFD0FB0F0BDC046F0B593B00AA8029025
:1003D0002421FFF794FE00270997089707970697AF
:1003E000059704970126300300F080F9022528467E
:1003F00000F028FB304600F079F909970896079736
:1004000006950595082001900490194804A90391C8
:1004100000F07EFA0997089706950595F00200907E
:100420000490052004072046039900F071FA08970C
:10043000079706950596F00304902046039900F06F
:1004400067FA00F0C7FA1197019810900E970D9572
:1004500000980C900A97412080000B90FC300F9080
:100460000448029900F0ECFB00F0E2FB13B0F0BD91
:10047000000400500030014010B582B0002001900F
:10048000009000F055FB0E4800680E490140012025
:10049000C003081800F07AFB00F06CFB0128FBD1C8
:1004A000684600F0F1FA084C204600F0D9FA2046E0
:1004B00000F062FC00F092FB00F0A0FB02B010BD67
:1004C000100FFF1FFF1F0000006CDC0280B586B01C
:1004D0000020059001A901220A740190088004906F
:1004E0004020029004480390044800F07FFC00F094
:1004F0001DFD06B080BDC046DC050000002C01409B
:1005000070B58EB00124204600F09CFA00F0DEF8B1
:1005100004200D900C9400260B9603210A910221D1
:10052000099108900520040708AD2046294600F0EF
:10053000EFF909200D90202008902046294600F070
:10054000E7F9079606960C20059004960396029606
:10055000E12040020190074801A900F041FD00F0B0
:1005600013FDFFF76DFE00F033FD00F01BFD0EB034
:1005700070BDC04600440040FEE700004A480168E4
:100580004A4A0A40511C01607047C046464800680C
:10059000C00F70473B480168032008407047C046C1
:1005A0000120400337490A6882430A607047C04609
:1005B00034490A6803239A4302430A607047C046DD
:1005C000012000032F490A6802430A607047C046B1
:1005D00001480121016070472824014001200004E6
:1005E00028490A6882430A607047C0460320800297
:1005F00024490A688243012080021018086070476D
:10060000372080011F490A688243012080021018A8
:100610000860704724480168244A0A40111D01609F
:100620007047C04680B500F06FF800F075F880BDE7
:100630000F20000703490A688243032000071018AF
:1006400008607047102401400320800502490A68B1
:1006500082430A607047C046082701400948016884
:1006600020229143016070470120800305490A68F8
:1006700082430A607047C0460248016818229143CD
:10068000016070470C240140024801680722914331
:10069000016070471424014003480168034A114077
:1006A000891816310160704708240140EAFFFF7F76
:1006B00081B00548016801221143016000681040C3
:1006C0000090009801B070473810024081B00120BE
:1006D000400405490A6802430A6009680140009124
:1006E000009801B07047C0463C10024081B00549F7
:1006F0000A6802430A60096801400091009801B04D
:100700007047C046401002400120000506490A68B3
:1007100002430A607047C0460120000502490A688A
:1007200082430A607047C0463010024010B52E4A1E
:100730008018401E0078134A8358024C1C400C431A
:10074000845010BD0F80FFFF1B494018401E0078E9
:100750000C49425801239A4342507047224940189D
:10076000401E007807494258012313434350704705
:1007700011494018401E0078024942580123134392
:10078000435070470000024010B5174A8018401EC1
:1007900000780A4A83580A4C1C400C43845010BD10
:1007A00010B5054A8018401E0078044A8358044C4E
:1007B0001C400C43845010BD5B1E00080400024026
:1007C0000000FFFF084A8018401E0078014A81504F
:1007D0007047C0460C000240034A8018401E007853
:1007E000024A81507047C046581E00080800024067
:1007F00022480121016070470120000624490A684F
:1008000082430A607047C046214801680222914332
:10081000016070471E4801680122914301607047E2
:10082000012000061A490A6802430A607047C04660
:100830001748016802220A430260704714480168A1
:1008400001220A43026070470120C00410490A686F
:1008500002430A607047C0462448016801200840EE
:100860007047C04605480068C003C00F7047C046C7
:1008700002480168012008407047C046102002402D
:100880000120C00702490A6802430A607047C04657
:1008900014200240F0B581B0EFF31080009072B6E2
:1008A0000D4D094E002702E01F2F274607D201CE2B
:1008B00001C57C1C1F2CF7D1FFF7C6FFF4E7009899
:1008C00080F3108801B0F0BDF00000200020C0438C
:1008D000014908607047C04600F0000803490A68F3
:1008E00001239A4302430A607047C0460020024039
:1008F00004480168044A0A4302600168034A0A4343
:10090000026070470820024023016745AB89EFCDA4
:10091000F0B581B00D460446096800292DD00027A6
:1009200009E06A692046314600F048F87F1C2968D2
:100930000846F84021D00126BE400E40F6D06A6835
:100940002046314600F054F86868401E012804D85B
:10095000AA682046314600F063F82A6920463146ED
:1009600000F055F868680228E0D1FF2ED9D86A69EE
:100970002046314600F018F8D8E76868401E012884
:1009800003D8EA68204600F03CF8012001B0F0BD31
:1009900004480221016070470120C003014908603A
:1009A0007047C04628000050494349434A430F233B
:1009B0004B43016A9943114301627047090A494355
:1009C00049434A430F234B43416A994311434162D0
:1009D000704700000120C003044908607047C0460A
:1009E0000120C003014908607047C046180000504C
:1009F00049434A4303234B43016899431143016030
:100A000070474A4343688B431343436070474943ED
:100A10004A4303234B43C16899431143C160704764
:100A200049434A4303234B438168994311438160FF
:100A3000704700000248016802224A400260704785
:100A40001400005081B005490A6802430A60096831
:100A500001400091009801B07047C0463410024038
:100A600080B500F001F880BD80B57D21C900FFF799
:100A700051FB401E03494860002088600520086043
:100A800080BDC04610E000E0B0B5044601F004F8B7
:100A9000002501281DD100F05BF80F49884218D3CA
:100AA00000F056F8B349884213D800F051F84500D9
:100AB00000F066F8012805D000F042F800F060F878
:100AC0000128FBD100F082F82846214600F0A4FF5F
:100AD00005462846B0BDC0460024F4000F200102A0
:100AE0005248006808407047072001034F480068DB
:100AF000084070470720C10233480068084070472B
:100B00004A480168382008407047C0464748016895
:100B1000382008407047C04610B5044600F078FC05
:100B2000206000F055FC606000F062FCA06010BD29
:100B30000120000224490A6802430A607047C04647
:100B40000120000220490A6802430A607047C0463B
:100B500012480068C00A1C210140054840587047EF
:100B60000E480068C00A1C210140014840587047E7
:100B7000601E0008144800684005C00F7047C0465A
:100B8000114800684005C00F7047C04603490A6815
:100B9000034B134003430B607047C04604100240F0
:100BA0000000FFFF0120000607490A6802430A60AF
:100BB0007047C046084800687047C0460248006851
:100BC0008001C00F7047C046001002400248016813
:100BD00001229143016070470C1002400F20000277
:100BE00012490A6882430A607047C0460F21090211
:100BF0000E4A13688B4303431360704707200003BA
:100C00000A490A6882430A607047C04607210903FF
:100C1000064A13688B430343136070470348016817
:100C200002220A4305218A430260704708100240ED
:100C30000248016840220A430260704700300140C8
:100C400070B50E46054600F041F8002802D0002499
:100C5000204670BD01246102706901402A68124B70
:100C6000134032681A4373681343F2681A433369B6
:100C700013430B43B1691943F2690A432A60000C1C
:100C800004210140B06801436A68084B13400B43DC
:100C9000316A19436960414241410903284600F025
:100CA0001DF8204670BDC0464038FFFFFB77FFFFB0
:100CB00005480168012008407047C04602480068A6
:100CC0008007C00F7047C0460830014000684006EA
:100CD000C00F70470748006880B2704701221203B6
:100CE000436893430B434360704700000148024947
:100CF000018070470C300140FFFF00000C48016884
:100D000007220A4318218A43026070471F2000020D
:100D100007490A6882430120C00210180860704722
:100D20001F20000402490A6882430A607047C046D7
:100D30001C000140B0B5411E0D4A914201D900206E
:100D4000B0BD0C490025884201D82C4600E00124A2
:100D50002046FFF7C3FDED43FFF77EFDA04203D021
:100D6000691C002D0D46F7D1011B48424841B0BD1A
:100D7000FF6BDC0200366E01014908607047C04617
:100D8000C00000200120C043434908607047C046AE
:100D90000120C0030A490A6882430A607047C046BE
:100DA0000120C00306490A6802430A607047C04632
:100DB0000120C00302490A6802430A607047C04626
:100DC000442C01402B48016801220A43026070470D
:100DD0000248016801220A43026070470C2C01405E
:100DE000416901220A4342617047000070B50D4617
:100DF000044601681F4EB04202D01F48844204D10D
:100E0000702081436868084300E008461B498C4213
:100E100008DDB4420CD01A498C4209D019498C42E1
:100E200006D024E014498C4202D017498C421ED1CE
:100E3000032109028843E96801432160A96820462B
:100E400000F06EF82988204600F06CF8B44205D016
:100E5000ED48844202D0ED48844203D1297C2046EB
:100E600000F062F82046FFF7BBFF012070BD01468D
:100E7000E3E7C046002C014000040040FF2B014086
:100E80000048014000440140002000400248016841
:100E9000012008407047C046102C0140B0B5034601
:100EA0000020FF2909DC012914D010291DD1184682
:100EB000114600F0ADF90120B0BD01242502A94280
:100EC0000ED02503A94210D11846114600F032FA7F
:100ED0002046B0BD1846114600F058F90120B0BDBB
:100EE0001846114600F0DCF92046B0BD0149086003
:100EF0007047C046342C0140416370470149086087
:100F00007047C046382C0140816370470149086032
:100F10007047C0463C2C0140C16370470164704774
:100F2000C16270478162704701637047034801687E
:100F300020220A4350218A4302607047042C01405A
:100F400081B048480168009100994068009000987D
:100F500001B0704781B04348016800910099406832
:100F60000090009801B0704781B03E480168009140
:100F7000009940680090009801B070474020C0433D
:100F8000384908607047C0460120C00204490A6819
:100F900082430A6048680822904348607047C04610
:100FA00010440040012040030C490A6802430A60D3
:100FB0007047C0460548016840220A4302607047F6
:100FC0000248016880220A430260704714440040CE
:100FD0000248016810220A43026070470C44004036
:100FE000F0B583B00E46044600F03EF80025002818
:100FF00026D1E0681449014070680843F168014354
:1010000030690843E0600127F80261698143B069F3
:1010100008436061B168204600F075F871692046A8
:1010200000F06AF86846FFF777FD0299002907D0BB
:101030003368002B04D0B269204600F019F83D4611
:10104000284603B0F0BDC046F3E9FFFF054800683D
:10105000C006C00F7047C046024800680007C00FB6
:101060007047C04600440040C0688004C00F70470D
:10107000F0B581B00090192048436321CC43012191
:10108000C9028A4218D15900FFF744F8064664277E
:101090003946FFF73FF805464443A019C0003230F7
:1010A0003946FFF737F80721014040001F2212019F
:1010B00002402801101815E09900FFF72BF80646AA
:1010C00064273946FFF726F805464443A019000176
:1010D00032303946FFF71EF80F210140F02202405E
:1010E00028011018034A024050180099886001B086
:1010F000F0BDC046F0FF0000032212024369934393
:101100000B434361704701225203036993430B432E
:101110000361704781B008490A680092401C01D3FE
:101120000020C043009A002804D00A68D203D217D6
:101130001018FAD101B0704710E000E0B0B50146D8
:101140000020064A1268064B9A4205D1054A38CA61
:1011500038C138CA38C1B0BDC043B0BD14F00008B2
:10116000EFBEADDE00F00008704710B50D2420463C
:1011700000F0A2FC204600F095FC1C24204600F064
:101180009BFC204600F08EFC10BD0000F0B583B043
:1011900004460126F043226A024022620A690240A4
:1011A000236A0327BB431343086802904D681D431D
:1011B0006368A2697B48844205D07B48844202D0A0
:1011C0007A48844213D13802834370024E690196F3
:1011D0008F69CE6987431F4373003B430C208543CF
:1011E00001984008C00028438D68AD000543636046
:1011F0007320824302980243A261C9682046FFF728
:101200007BFE256203B0F0BD004801400044014070
:10121000F0B583B00446006A102290432062206A31
:10122000302290430A695208520102430F684B680A
:101230001D0115436368A2695A4EB44205D05A4E47
:10124000B44202D0594EB44219D10326B602B34378
:10125000486902903E468F69C8690190BF000F48F7
:10126000384037461843019BDB000343C0208543C9
:1012700002984008C00128438D68AD0105436360B2
:1012800073200002824338021043A061C9682046DF
:10129000FFF73AFE256203B0F0BDC046FCF7FFFF42
:1012A000F0B585B004462148FF30226A0240226230
:1012B000032003900002226A824308694008430227
:1012C0001343086804904A6815021D436368E26985
:1012D000344FBC4205D0344FBC4202D0334FBC42E5
:1012E00017D103980703BB434E6902968E69CF69F5
:1012F000019737010E4E3E401E43019B5B01334375
:101300008002854302984008C00228438D68AD02E0
:10131000054363607320824304980243E261C96815
:101320002046FFF7F9FD256205B0F0BD00FEFFFF86
:10133000F0DFFFFFF0B583B0044601263003226AD8
:1013400082432262256A636805C902928A68019213
:10135000E269144F0839BC4205D0134FBC4202D099
:10136000124FBC4205D1B603B3438E69B6011E438A
:1013700000E01E46666073231B029A43000210437E
:10138000E061C9682046FFF7C9FD032000038543DB
:101390000198400840032843029909030143216250
:1013A00003B0F0BD002C0140004801400044014062
:1013B00070474843012189034018C00B00B27047B1
:1013C0004843012189034018C00B00B27047000058
:1013D00010B50446FFF782FB80093C210140034819
:1013E00040581F210140CC40204610BDF81D000888
:1013F00010B50446FFF778FB000B8000034908583E
:101400001F210140CC40204610BDC046381E0008B8
:1014100010B5FFF77BFB182804D0102806D100F088
:1014200015F810BD0120C403204610BD42480068D5
:10143000C00A1C21014004484458FFF75BFBC00A66
:10144000C440204610BDC046601E000880B5FFF7AE
:10145000B1FBFFF785FB400080BD10B5FFF79CFA9C
:10146000FFF72CFC0028FBD0FFF740FCFFF720FC27
:101470000028FBD0FFF72EFC4004840CFFF7B0FAE5
:10148000204610BD7047000010B5FFF731FAFFF796
:10149000E9F90128FBD0FFF7C3F9FFF7C9F9FFF716
:1014A00015FAFFF7DFF90128FBD0FFF7E1F9002873
:1014B000FBD0FFF79DF9FFF79FF9FFF7A5F9134C54
:1014C000204618306821FEF71AFEBC480EC80EC42C
:1014D0000EC80EC4FFF7C6F90128FBD0FFF7A0F92C
:1014E000FFF7ACF9FFF7D6F9FFF7BCF90128FBD0FD
:1014F000FFF7BEF90028FBD0FFF77AF9FFF77CF978
:10150000FFF788F9FFF7BCF910BDC046F0000020D6
:101510007047000008480168084A0A4008490968FD
:10152000084B19405118C918491C01600120C00618
:10153000054908607047C046041002400000FFFFE4
:10154000040FFF1FFF1F000008ED00E0F0B583B09F
:10155000FFF79CFC002800D11EE1FFF713FCFFF70A
:101560007CFF8E4EB070030AF370317B3073727B58
:1015700073738B4F3B785D1C3D70120251180290C3
:10158000401AB074010AF17403B2864886498B424E
:1015900001DB194600E01918844A01204403A342E4
:1015A000019400DD9918327A737A1B029A18B37A83
:1015B000F47A2402E3181B049A188B1833721A0C5D
:1015C000B2721C0EF472190A7172EDB2102D00D0B5
:1015D000ABE03D4600272F70357C00953274727C5D
:1015E0007474B47BB373F57BF17329020919120289
:1015F000009C1219120451185D1A3571290A717173
:101600002904012900DAF843694A1070C9176A18D9
:101610004A40110409154143664801803078C028CA
:101620000ED0C12856D0C2287FD1307D717D0902ED
:101630000818F4498A88CC8814430DD0C11A1DE0DB
:101640001B2030560002B17E40185B49491CFFF751
:10165000B0FE3076000A67E0029A801A4988401886
:10166000E949488001B2019A9142504B00DC3B4667
:101670004D4A9142E64900DB19460918E24F79804C
:10168000388800B20CB2012C01DB63280DDC002C81
:1016900003D56221C943884207DB0820385E214612
:1016A000FFF787FEB9880818B8800620395E204603
:1016B000FFF77FFE7880B988081800B26321C9431C
:1016C000884200DC0846642800DB6420B07538805E
:1016D000000AF075B07DF17D09020818291ACB487F
:1016E000418009B2028812B2012902DB324B9A42D0
:1016F00009DC002902D5324B9A4204DB02894A43B5
:101700008388D2188280C2885143418082885118D0
:1017100009B22C4A914200DC11462B4A914200DB6F
:10172000114631760180080A707630780B2827D070
:101730002048008802994018B249098940180721B9
:101740004143B34801402148018019203056050229
:101750004C09377E204600F0C7F9ED19404201B22E
:101760002846FFF726FE3077000A7077204600F003
:10177000B3F901462846FFF71CFEB077000AF07760
:101780001D2030560002317F40181F21715609027A
:10179000B27F891800F03EFA03B0F0BD7601002058
:1017A000CE000020FF3F000000E0FFFF01C0FFFF70
:1017B000A0010020EC000020D3490000D40000204C
:1017C0002DB6FFFF2CB6FFFFD4490000EE0000202D
:1017D000F0B581B0FFF73AFC002800D108E1FFF72F
:1017E000AFFB0220FEF7B0FF854D2878AA2800D075
:1017F000F6E0E84C20786978814200D0F0E0AF78DC
:10180000E34E37703846A038512800D95CE04000DC
:10181000784480884000874462006500D300D3008C
:10182000D300D300D300D300D300D300D300D30020
:10183000D300D300D300D3006800D300D300D3007B
:10184000D300D300D300D300D300D300D300D30000
:10185000D300D300D300D30078007E008B00D300E8
:10186000D300D300D3009F00A500AB00D300D3006A
:10187000D300D300D300D300B100B700D300D3000E
:10188000D300D300D300D300D300D300D300D300C0
:10189000D300D300D300D30051005100D300D300B4
:1018A000D300D300D300D300D300D300D300D300A0
:1018B000D300D300D300D300BD00C00028796979DC
:1018C0000902081860817BE00B2F79D10020F077A6
:1018D000B0774620707750203077377070E0FFF790
:1018E00057FA6DE0FFF764FA6AE0FFF751FAAF4884
:1018F000C188E18100892082AD48C1886181008969
:10190000A0812046FFF7C0FD5AE037706879F07675
:101910002879B07654E0052028560002297941182C
:101920003C48FFF746FDB0753770000AF07547E098
:10193000052028560002297940180621625EA188F8
:1019400013460B431B0430D00BB2904200DB02461F
:10195000984231DC11462FE0FFF77FFD608000F0F8
:1019600029F92DE02879697909020818E08027E033
:101970002879697909020818A08021E02879697915
:1019800009020818E0811BE0287969790902081822
:10199000208215E02879207012E0287969790902FF
:1019A00008189949014021810AE0C11788439649E6
:1019B000884200DB0846014631753770080A7075A9
:1019C000E87800280AD001242046FEF7BDFEE97819
:1019D0002046FEF7E5FE2046FEF7CAFEFFF72AF88E
:1019E000022406212046FEF7DBFE2046FEF7C0FE5D
:1019F000FFF732FB002801D0FFF7B6FA01B0F0BDC7
:101A0000C8000020D400002096010020A201002080
:101A1000FF3F0000F3220000F0B581B00E460446FF
:101A2000086880093C210140194840581F210140A5
:101A3000CC40184F3868A04206D22046FFF77AF90A
:101A40000546012D03D014E00125012D11D1FFF72A
:101A5000A9F8FFF7B3F80128FBD13068FFF7C6F803
:101A6000FFF7DCF8FFF74CF81028FBD17068FFF7A0
:101A7000CDF83868A04203D92046FFF75BF9054648
:101A8000012D02D12046FFF777F9284601B0F0BDBD
:101A9000F81D0008C000002080B5FFF78FF8414214
:101AA000484180BD1F210140012088400149086054
:101AB0007047C04600E100E0C0B28107C90EFF22B6
:101AC0008A4004494018032188430168914301601A
:101AD0007047C04600E400E080B50521C901081A3E
:101AE00080B200F001F880BD7F22C30510400121C3
:101AF0009B0F07D0022B04D05040012B02D0044989
:101B000000E003494000034A105A484300B27047BE
:101B1000FFFF0000801E0008FEF7AEFCFFF725FB6C
:101B2000FEF7E8FBFEF73EFBFEF74EFCFEF7E8FC97
:101B3000FEF7F6FBFEF7CAFC3148AB214170314C91
:101B40002046FFF7FBFA00280DD000202082124823
:101B50001249618001212170114961611149124AC4
:101B60006060A260E160E0891049C880208A088135
:101B700060890F49C880A089088100F01BF8FEF732
:101B800007FFFFF725F9FFF70BF9FFF71BF9FEE752
:101B900076010020D4000020FF0F0CFE392C00003D
:101BA000EFBEADDE0A000807C72E820096010020B6
:101BB000A201002080B5FFF750FC1149087388701E
:101BC000020A4A73CA700F4A5288801A8874020A3D
:101BD000CA7402B20D48824201DB104601E00A4895
:101BE000101801235B039A4201DD0948101808729E
:101BF000020ECA72020C8A72000A487280BDC04688
:101C000076010020D4000020FF3F000000E0FFFF2D
:101C100001C0FFFFF0B585B00D46064604A90020BF
:101C2000087029463143624C59D00121002D0F46DE
:101C300000DC0746890328460391FFF7C1FB0446F1
:101C40005C493046FFF7BCFB011B09B2002900DDEF
:101C5000BF1C04A90F700019404200B2012804DB28
:101C600004200499014304A8017004A8007802909C
:101C7000514C20462946FFF7A3FB01904D483146C1
:101C8000FFF79EFB064603982946FFF799FB074698
:101C9000801901B22046FFF793FB0546B81B01B23D
:101CA0002046FFF78DFB45A1029A895C491E052954
:101CB0003F4C33D88A0001A39A589746D51C000898
:101CC000ED1C0008F31C0008FB1C0008071D0008A1
:101CD000111D000840423B4A1080019D1CE0204637
:101CE000FFF704F92046FFF709F95BE0354A108059
:101CF00012E03448019A02800DE0019A5242314BC1
:101D00001A80054608E06A422E4B1A80454203E0DD
:101D10002C480580019D6D422B480580052937D848
:101D200028480288A01A284B1B88C01A8008C04681
:101D30007944097949008F44020A0F161B221918A9
:101D4000224C218099180918214A11801EE0191887
:101D50001F4B1980891803E01D4908801818811845
:101D60001A4A118012E01A4908801818174903E02E
:101D700016490880181816490880801806E013498B
:101D8000088099180918124A1180181811490880FA
:101D90000F480088FFF7AAF80C480088FFF7AEF854
:101DA0000C4804882046FFF7B1F805B0F0BDC046E6
:101DB000DC050000DA6E0000260A000000020601C1
:101DC00004030500D0000020D20000207201002092
:101DD000700100207401002002E008C8121F08C131
:101DE000002AFAD170477047002001E001C1121F9C
:101DF000002AFBD170470000000000000000000036
:101E000000000000000000000000000000000000D2
:101E100000000000000000000100000002000000BF
:101E2000030000000400000006000000070000009E
:101E30000800000009000000000000000000000091
:101E4000000000000000000001000000020000008F
:101E50000300000004000000081C30081C300000D3
:101E600000093D0000127A000024F4004086510170
:101E700000366E0100093D0000093D0000093D00EB
:101E8000000092012403B6044806D9076B09FB0A37
:101E90008C0C1C0EAB0F3A11C8125514E2156E17BC
:101EA000F918831A0C1C931D1A1F9F202422A723A4
:101EB0002825A8262728A4291F2B992C112E872FE7
:101EC000FC306E32DF334E35BA3625388D39F33A71
:101ED000573CB83D173F7440CE4126437B44CD4527
:101EE0001D476A48B449FB4A404C814DC04EFB4FE8
:101EF000345169529B53CA54F6551E57435864597E
:101F0000825A9D5BB45CC85DD75EE45FEC60F161B2
:101F1000F262EF63E964DE65D066BD67A7688C692D
:101F20006E6A4B6B246CF96CCA6D976E5F6F237091
:101F3000E3709E7155720873B67360740575A6756B
:101F40004276D9766C77FB7785780A798A79067A32
:101F50007D7AEF7A5D7BC67B2A7C897CE47C3A7D46
:101F60008A7DD67D1E7E607E9D7ED67E0A7F387FEE
:101F7000627F877FA77FC27FD97FEA7FF67FFE7F60
:101F800000000000A81F000800000020C80000009A
:101F9000D81D000870200008C8000020E8040000D8
:101FA000E81D000800000000000000000000000024
:101FB0000000000000000000000000000000000021
:101FC0000000000000000000000000000000000011
:101FD0000000000000000000000000000000000001
:101FE00000000000000000000000000000000000F1
:101FF00000000000000000000000000000000000E1
:1020000000000000000000000000000000000000D0
:1020100000000000000000000000000000000000C0
:1020200000000000000000000000000000000000B0
:1020300000000000000000000000000000000000A0
:102040000000000000000000000000000000000090
:102050000000000000000000000000000000000080
:10206000000000000000000000127A0000000000E4
:04000005080000C12E
:00000001FF
