:020000040800F2
:10000000A8050020D5000008850E00087904000826
:1000100000000000000000000000000000000000E0
:10002000000000000000000000000000A91100080E
:100030000000000000000000D5100008FD110008BD
:10004000E7000008E7000008E7000008E7000008F4
:10005000E7000008E7000008E7000008E7000008E4
:1000600000000000E7000008E700000800000000B2
:10007000E700000839120008E7000008000000004F
:10008000E7000008E700000800000000E7000008A3
:1000900000000000E7000008E7000008E700000893
:1000A00000000000E7000008E7000008E700000883
:1000B0005D140008000000000000000000000000C7
:1000C0000348854600F046F80048004779010008DB
:1000D000A80500200448804704480047FEE7FEE7E3
:1000E000FEE7FEE7FEE7FEE701120008C100000898
:1000F000D2B201E00270401C491EFBD270470022C0
:10010000F6E710B513460A4604461946FFF7F0FF16
:10011000204610BD70B50446002903D000202022DF
:10012000012310E0002801D00020C043C046C04693
:100130000DE02546D5408D4205D30D469540641B04
:100140001D46954040191546521E002DF1DC2146F2
:1001500070BD0000064C0125064E05E0E36807CCA3
:100160002B430C3C98471034B442F7D3FFF7ACFF55
:10017000541B0008741B000880B5002007490122A9
:10018000D306C3580B50001DC028F8D150070449AE
:10019000086001F0F1FA002080BDC0460000002098
:1001A00008ED00E010B500F069F90124204600F0E8
:1001B00083F99021204600F08DF90220802100F083
:1001C00089F900F049FC00F04FFC00F0BDF900F0A7
:1001D000C7F900F0A5F900F095F900F05FFD00F017
:1001E00087FD10BD10B586B00124204600F0D8FA76
:1001F00000200590049003900320029001940220B7
:10020000009005200007694600F030FA06B010BDE6
:10021000F0B58FB00F20C6013046803000F04CF9A9
:100220000124204600F0BCFA0225284600F0B8FA66
:1002300000270E970A9709970B970D970C970E9525
:100240000A9509960B9508970797069705970497BF
:100250000397029701970520000709AE314600F089
:1002600005FA0E950A95032009900D970C970B95AA
:100270003B48314600F0FAF9059703940294702048
:10028000019006970797089725022846F4300490B6
:10029000564E01AF304621463A4600F0ADFC1021E3
:1002A00030463A4600F0A8FC304629463A4600F06F
:1002B000A3FC0FB0F0BDC046F0B593B00AA8029001
:1002C0002421FFF71CFF0027099708970797069737
:1002D000059704970126300300F0EEF80225284622
:1002E00000F05EFA304600F0E7F8099708960797A5
:1002F00006950595082001900490194804A90391DA
:1003000000F0B4F90997089706950595F00200905A
:100310000490052004072046039900F0A7F90897E8
:10032000079706950596F00304902046039900F080
:100330009DF900F0FDF91197019810900E970D9519
:1003400000980C900A97412080000B90FC300F9091
:100350000448029900F022FB00F018FB13B0F0BD36
:10036000000400500030014010B582B00020019020
:10037000009000F08BFA0E4800680E490140012001
:10038000C003081800F0B0FA00F0A2FA0128FBD16F
:10039000684600F027FA084C204600F00FFA204685
:1003A00000F090FB00F0C8FA00F0D6FA02B010BDE1
:1003B000100FFF1FFF1F0000006CDC0280B586B02D
:1003C0000020059001A90874019008800490402045
:1003D000029005480390054800F0BAFB00F08CFB42
:1003E00000F09CFB06B080BDDC050000002C014045
:1003F00070B58EB00124204600F0D2F900F04CF820
:1004000004200D900C9400240B9403210A910221E6
:10041000099108900520050708AE2846314600F0EE
:1004200025F909200D90202008902846314600F03B
:100430001DF91C252846214601F06AF9284601F0DD
:100440005DF9079406940C2005900494039402949B
:10045000E12040020190074801A900F059FC00F09A
:1004600031FCFFF79FFE00F04BFC00F039FC0EB0B2
:1004700070BDC04600440040FEE7000081B0054862
:10048000016801221143016000681040009000984B
:1004900001B070473810024081B001204004054986
:1004A0000A6802430A60096801400091009801B09F
:1004B0007047C0463C10024081B005490A680243BB
:1004C0000A60096801400091009801B07047C04679
:1004D0004010024010B505A28018401E0078044A62
:1004E0008358044C1C400C43845010BD081C300041
:1004F000000002400F80FFFF08480168012291437D
:10050000016070470548016801220A430260704794
:100510000248016801220A43026070471C00024041
:1005200007480168074A0A40911D01607047C046AC
:1005300003480168034A0A40911D01607047C046A4
:10054000200002400000FFFF04480149016070479D
:10055000CA000020014908607047C04628000240D8
:1005600001480249016070472400024004440040F1
:100570001C48012101607047012000061E490A68DD
:1005800082430A607047C0461B48016801229143BC
:10059000016070470120000617490A6802430A609B
:1005A0007047C0461448016801220A430260704740
:1005B0000120C00410490A6802430A607047C0461F
:1005C00021480168012008407047C046054800687E
:1005D000C003C00F7047C0460248016801200840B0
:1005E0007047C046102002400120C00702490A6837
:1005F00002430A607047C04614200240F0B581B043
:10060000EFF31080009072B6094D0A4E002702E009
:100610001F2F274607D201CE01C57C1C1F2CF7D106
:10062000FFF7C6FFF4E7009880F3108801B0F0BD33
:1006300000F00008F400002003490A6801239A43EF
:1006400002430A607047C046002002400448016827
:10065000044A0A4302600168034A0A430260704781
:100660000820024023016745AB89EFCDF0B581B08A
:100670000D460446096800292DD0002709E06A6963
:100680002046314600F048F87F1C29680846F840AB
:1006900021D00126BE400E40F6D06A682046314681
:1006A00000F054F86868401E012804D8AA68204663
:1006B000314600F063F82A692046314600F055F8CB
:1006C00068680228E0D1FF2ED9D86A6920463146F1
:1006D00000F018F8D8E76868401E012803D8EA68D7
:1006E000204600F03CF8012001B0F0BD0448022192
:1006F000016070470120C003014908607047C0468F
:1007000028000050494349434A430F234B43016AA1
:100710009943114301627047090A494349434A43D7
:100720000F234B43416A99431143416270470000D4
:100730000120C003044908607047C0460120C0037F
:10074000014908607047C0461800005049434A43B9
:1007500003234B43016899431143016070474A43A7
:1007600043688B4313434360704749434A43032321
:100770004B43C16899431143C160704749434A43A1
:1007800003234B4381689943114381607047000004
:100790000248016802224A4002607047140000507B
:1007A00081B005490A6802430A6009680140009166
:1007B000009801B07047C0463410024080B500F088
:1007C00001F880BD80B57D21C900FFF7A3FC401E64
:1007D00003494860002088600520086080BDC0464D
:1007E00010E000E0B0B5044600F082FF00250128CB
:1007F0001DD100F05BF80F49884218D300F056F87D
:10080000AF49884213D800F051F8450000F066F86F
:10081000012805D000F042F800F060F80128FBD173
:1008200000F082F82846214600F022FF05462846BF
:10083000B0BDC0460024F4000F20010252480068F9
:1008400008407047072001034F4800680840704780
:100850000720C10233480068084070474A480168D1
:10086000382008407047C046474801683820084093
:100870007047C04610B5044600F05CFC206000F0F4
:1008800039FC606000F046FCA06010BD0120000251
:1008900024490A6802430A607047C04601200002EA
:1008A00020490A6802430A607047C046124800683F
:1008B000C00A1C2101400548405870470E48006896
:1008C000C00A1C210140014840587047301A0008F6
:1008D000144800684005C00F7047C04611480068C2
:1008E0004005C00F7047C04603490A68034B1340D8
:1008F00003430B607047C046041002400000FFFF36
:100900000120000607490A6802430A607047C04692
:10091000084800687047C046024800688001C00F60
:100920007047C0460010024002480168012291430E
:10093000016070470C1002400F20000212490A6843
:1009400082430A607047C0460F2109020E4A1368AD
:100950008B43034313607047072000030A490A686A
:1009600082430A607047C04607210903064A13689C
:100970008B430343136070470348016802220A4314
:1009800005218A430260704708100240024801684E
:1009900040220A43026070470030014070B50E46A5
:1009A000054600F041F8002802D00024204670BD22
:1009B00001246102706901402A68124B13403268B9
:1009C0001A4373681343F2681A43336913430B43A2
:1009D000B1691943F2690A432A60000C04210140FD
:1009E000B06801436A68084B13400B43316A1943EE
:1009F0006960414241410903284600F01DF8204644
:100A000070BDC0464038FFFFFB77FFFF0548016817
:100A1000012008407047C046024800688007C00FA8
:100A20007047C0460830014000684006C00F70475C
:100A30000748006880B2704701221203436893435D
:100A40000B43436070470000014802490180704732
:100A50000C300140FFFF00000848016807220A43EC
:100A600018218A43026070471F20000203490A6868
:100A700082430120C0021018086070471C0001402A
:100A8000B0B5411E0D4A914201D90020B0BD0C49BC
:100A90000025884201D82C4600E001242046FFF7BB
:100AA000CBFDED43FFF78CFDA04203D0691C002D68
:100AB0000D46F7D1011B48424841B0BDFF6BDC0237
:100AC00000366E01014908607047C046C40000202E
:100AD0000120C043474908607047C0460120C00359
:100AE0000D490A6882430A607047C046144801688D
:100AF00001229143016070470120C00306490A6842
:100B000002430A607047C0460120C00302490A68D8
:100B100002430A607047C046442C01402E480168D9
:100B200001220A43026070470548016801220A4316
:100B3000026070470248016801220A430260704760
:100B40000C2C0140416901220A43426170470000B8
:100B500070B50D4604460168F34EB04202D01F48FE
:100B6000844204D1702081436868084300E008464D
:100B70001B498C4208DDB4420CD0EC498C4209D0B0
:100B8000EB498C4206D024E014498C4202D015492E
:100B90008C421ED1032109028843E9680143216088
:100BA000A968204600F06AF82988204600F068F815
:100BB000B44205D0DD48844202D0DD48844203D1EE
:100BC000297C204600F05EF82046FFF7BBFF01209D
:100BD00070BD0146E3E7C046002C01400004004020
:100BE000FF2B01400020004002480168012008401E
:100BF0007047C046102C0140B0B503460020FF29C5
:100C000009DC012914D010291DD11846114600F025
:100C100091F90120B0BD01242502A9420ED025037F
:100C2000A94210D11846114600F016FA2046B0BD70
:100C30001846114600F03AF90120B0BD1846114699
:100C400000F0C0F92046B0BD014908607047C046B9
:100C5000342C014041637047014908607047C04629
:100C6000382C014081637047014908607047C046D5
:100C70003C2C0140C163704701647047C1627047FA
:100C8000816270470163704781B0424801680091FA
:100C9000009940680090009801B0704781B03D48CD
:100CA00001680091009940680090009801B0704779
:100CB00081B0384801680091009940680090009820
:100CC00001B070470120C00204490A6882430A60EB
:100CD00048680822904348607047C046104400406E
:100CE0000120400309490A6802430A607047C04670
:100CF0000248016840220A430260704714440040E1
:100D00000248016810220A43026070470C44004008
:100D1000F0B583B00E46044600F03EF800250028EA
:100D200026D1E0681449014070680843F168014326
:100D300030690843E0600127F80261698143B069C6
:100D400008436061B168204600F075F8716920467B
:100D500000F06AF86846FFF78DFD0299002907D078
:100D60003368002B04D0B269204600F019F83D46E4
:100D7000284603B0F0BDC046F3E9FFFF0548006810
:100D8000C006C00F7047C046024800680007C00F89
:100D90007047C04600440040C0688004C00F7047E0
:100DA000F0B581B00090192048436321CC43012164
:100DB000C9028A4218D15900FFF7ACF906466427E8
:100DC0003946FFF7A7F905464443A019C000323061
:100DD0003946FFF79FF90721014040001F22120109
:100DE00002402801101815E09900FFF793F9064614
:100DF00064273946FFF78EF905464443A0190001E0
:100E000032303946FFF786F90F210140F0220240C7
:100E100028011018034A024050180099886001B058
:100E2000F0BDC046F0FF0000032212024369934365
:100E30000B434361704701225203036993430B4301
:100E40000361704710B501460020094A1368094C38
:100E5000A3420BD11268CA60074A12688A60074A27
:100E600012684A60064A12680A6010BDC04310BD8D
:100E70000CF00008EFBEADDE08F0000804F000083A
:100E800000F00008704710B50D240021204600F046
:100E90003FFC204600F032FC1C240221204600F0DA
:100EA00037FC204600F02AFC10BD0000F0B583B0EE
:100EB00004460126F043226A024022620A69024087
:100EC000236A0327BB431343086802904D681D4300
:100ED0006368A2697C48844205D07C48844202D081
:100EE0007B48844213D13802834370024E690196D5
:100EF0008F69CE6987431F4373003B430C208543B2
:100F000001984008C00028438D68AD000543636028
:100F10007320824302980243A261C9682046FFF70A
:100F200099FE256203B0F0BD002C0140004801404D
:100F300000440140F0B583B00446006A102290439B
:100F40002062206A302290430A695208520102430B
:100F50000F684B681D0115436368A2695A4EB4427D
:100F600005D05A4EB44202D0594EB44219D103268C
:100F7000B602B343486902903E468F69C869019042
:100F8000BF000F48384037461843019BDB0003433E
:100F9000C020854302984008C00128438D68AD01F8
:100FA0000543636073200002824338021043A0614E
:100FB000C9682046FFF756FE256203B0F0BDC04663
:100FC000FCF7FFFFF0B585B004462148FF30226AE8
:100FD00002402262032003900002226A82430869D1
:100FE000400843021343086804904A6815021D43F1
:100FF0006368E269344FBC4205D0344FBC4202D032
:10100000334FBC4217D103980703BB434E69029686
:101010008E69CF69019737010E4E3E401E43019BFA
:101020005B0133438002854302984008C002284395
:101030008D68AD02054363607320824304980243C8
:10104000E261C9682046FFF715FE256205B0F0BDD4
:1010500000FEFFFFF0DFFFFFF0B583B0044601267E
:101060003003226A82432262256A636805C90292BC
:101070008A680192E269144F0839BC4205D0134FC7
:10108000BC4202D0124FBC4205D1B603B3438E69B5
:10109000B6011E4300E01E46666073231B029A439E
:1010A00000021043E061C9682046FFF7E5FD032018
:1010B000000385430198400840032843029909032F
:1010C0000143216203B0F0BD002C01400048014003
:1010D0000044014070474843012189034018C00B78
:1010E00000B270474843012189034018C00B00B289
:1010F0007047000010B50446FFF79EFB80093C21B5
:101100000140034840581F210140CC40204610BDFB
:10111000D019000810B50446FFF794FB000B8000BF
:10112000034908581F210140CC40204610BDC0464D
:10113000101A000810B5FFF797FB182804D01028E4
:1011400006D100F015F810BD0120C403204610BDE3
:1011500034480068C00A1C21014004484458FFF785
:1011600077FBC00AC440204610BDC046301A0008B4
:1011700080B5FFF7CDFBFFF7A1FB400080BD10B5A8
:10118000FFF7B8FAFFF748FC0028FBD0FFF75CFC3C
:10119000FFF73CFC0028FBD0FFF74AFC4004840C1E
:1011A000FFF7CCFA204610BD7047000010B5FFF7DE
:1011B0004DFA114C204610307021FF22FEF798FFA7
:1011C000A4480EC800680EC42060FFF7E3F9FFF7DB
:1011D000E9F9FFF713FAFFF7F9F90128FBD0FFF758
:1011E000FBF90028FBD0FFF7C3F9FFF7C5F9FFF7BC
:1011F000CBF9FFF7F9F910BDF400002070470000AB
:1012000008480168084A0A4008490968084B19401B
:101210005118C918491C01600120C0060549086021
:101220007047C046041002400000FFFF040FFF1F7C
:10123000FF1F000008ED00E0F0B581B0FFF7D4FC1F
:10124000002800D1E9E0FFF743FCFFF798FF0446D0
:10125000734FF870000A387172480178491C0170A8
:10126000C9B2714A202900D0ACE0002303706F4856
:1012700001880480651A2EB2012250038642009034
:1012800001DC184600E06A486A498E42F54E00DBF0
:10129000064675197D71280AB8712EB2002E00DC41
:1012A000DA4365480270F0132B18434018B2400926
:1012B0005043624A1080EC48007806256843E44AAF
:1012C00012189078C0280FD0C1284FD0C228E54A04
:1012D00078D1F8793A7A12021018021B13B20098EA
:1012E00083420DDC00200CE01079052151560902E3
:1012F00008185449491CFFF7EEFEF872000A5FE037
:101300004F484C498B42D74900DB01468818D34AE5
:10131000508003B2108800B2642801DB002B10DC7F
:101320006321C943884201DC002B0AD40820105EE7
:1013300019460093FFF7CFFE009BC84A9188081812
:101340009080515F1846FFF7C6FEC44A50809188CE
:10135000081800B26321C943884200DC08466428AB
:1013600000DB642078721080000AB872787AB97A4B
:1013700009020818311ABA48418009B2028812B22B
:10138000012902DB2F4B9A4209DC002902D52E4BA2
:101390009A4204DB02894A438388D2188280C28839
:1013A000514341808288511809B2284A914200DC99
:1013B0001146274A914200DB1146F9720180080A62
:1013C0003873A84A1D4800880019A2494988401866
:1013D000072141431140204801800C203856050266
:1013E0004C09FE7A204600F0AFF9AE19404201B236
:1013F0003046FFF770FE05467873000AB873204642
:1014000000F09AF901463046FFF765FE0146F87391
:10141000000A3874284600F0E9F901B0F0BDC04672
:101420007A010020D6000020FF3F0000F0000020DD
:1014300001C0FFFF00E0FFFF96010020EC0000204C
:1014400001C00000D34900002DB6FFFF2CB6FFFFFE
:10145000D4490000DC000020EE000020F0B581B08F
:10146000FFF78CFC002800D1E7E0FFF70DFCFFF749
:1014700043F8764E3478062528466043744F395C2D
:10148000AA2900D0D0E038184178D24B1A7891427E
:1014900000D0C9E08178704A1170A039512900D973
:1014A000C0E049007944898849008F448D0092004A
:1014B000BB00BB00BB00BB00BB00BB00BB00BB0054
:1014C000BB00BB00BB00BB00BB00BB005700BB00A8
:1014D000BB00BB00BB00BB00BB00BB00BB00BB0034
:1014E000BB00BB00BB00BB00BB00BB0097009B0068
:1014F0006A00BB00BB00BB00BB00BB00BB00BB0065
:10150000BB00BB00BB00BB00BB00BB00B000B60013
:10151000BB00BB00BB00BB00BB00BB00BB00BB00F3
:10152000BB00BB00BB00BB00BB00BB0051005100B7
:10153000BB00BB00BB00BB00BB00BB00BB00BB00D3
:10154000BB00BB00BB00BB00BB00BB008200850032
:101550000179407900024018988063E01C46FFF74B
:10156000BDFAFFF7C3FA9F48C188218100896081D5
:101570009D48C188A1800089E0802046FFF716FEC3
:1015800050E061426141317037490A78534253411A
:101590000B7001790522825610024018D11788433A
:1015A0003049884200DB08462B49C871000A08729E
:1015B00038E00079187035E0017940790002401870
:1015C0002849014059802DE0FFF788FAFFF78EFA8D
:1015D00028E0FFF799FAFFF7ADFA23E06042604197
:1015E00030700EE0017905228056000241181F4834
:1015F000FFF771FD184A5072614261413170000A73
:101600009072194801784A424A4102700AE0017911
:10161000407900024018188104E001794079000205
:1016200040185881FFF7B4F8307845437819FEF731
:1016300091FFFEF77DFFFEF76BFFFFF7A5FB00288C
:1016400001D0FFF735FB01B0F0BDC046C800002057
:10165000CA000020DC0000207A0100208C0100205C
:1016600098010020FF3F0000C0000020F32200008E
:10167000F0B581B00E460446086880093C2101405F
:10168000194840581F210140CC40184F3868A042EB
:1016900006D22046FFF7F4F90546012D03D014E0E9
:1016A0000125012D11D1FFF72BF9FFF735F901289D
:1016B000FBD13068FFF748F9FFF75EF9FFF7CEF886
:1016C0001028FBD17068FFF74FF93868A04203D9A2
:1016D0002046FFF7D5F90546012D02D12046FFF738
:1016E000F1F9284601B0F0BDD0190008C40000206F
:1016F00080B5FFF711F94142484180BD1F210140EB
:1017000001208840014908607047C04600E100E0C0
:1017100010B5C0B28207D20EFF239340054C0019CA
:101720000324A04304689C438901C9B2914021432A
:10173000016010BD00E400E080B50521C901081A70
:1017400080B200F001F880BD7F22C3051040012166
:101750009B0F07D0022B04D05040012B02D004492C
:1017600000E003494000034A105A484300B2704762
:10177000FFFF0000501A0008FEF7F6FDFFF783FB9D
:10178000FEF730FDFEF798FDFEF732FEFEF740FD56
:10179000FEF714FE0F4C2046FFF754FB002809D03B
:1017A00079480D496180012121700C490C4A626021
:1017B000A060E16020890B49C88060890881A08809
:1017C0000949C880E0880881FEF790FFFFF7ACF96F
:1017D000FEE7C046DC000020C72E0000EFBEADDEF5
:1017E0006E0009008C01002098010020F0B585B042
:1017F0000D46064604A90020087029463143624C74
:1018000059D00121002D0F4600DC074689032846E8
:101810000391FFF767FC04465C493046FFF762FC22
:10182000011B09B2002900DDBF1C04A90F700019BB
:10183000404200B2012804DB04200499014304A8BB
:10184000017004A800780290514C20462946FFF709
:1018500049FC01904D483146FFF744FC0646039889
:101860002946FFF73FFC0746801901B22046FFF7E3
:1018700039FC0546B81B01B22046FFF733FC45A1F1
:10188000029A895C491E05293F4C33D88A0001A37E
:101890009A589746AD180008C5180008CB180008DC
:1018A000D3180008DF180008E918000840423B4A36
:1018B0001080019D1CE02046FFF7C6F92046FFF787
:1018C000CBF95BE0354A108012E03448019A02807F
:1018D0000DE0019A5242314B1A80054608E06A42F7
:1018E0002E4B1A80454203E02C480580019D6D4235
:1018F0002B480580052937D828480288A01A284B8C
:101900001B88C01A8008C0467944097949008F4471
:10191000020A0F161B221918224C21809918091847
:10192000214A11801EE019181F4B1980891803E005
:101930001D490880181881181A4A118012E01A49A6
:1019400008801818174903E0164908801818164926
:101950000880801806E01349088099180918124A6F
:1019600011801818114908800F480088FFF76CF99A
:101970000C480088FFF770F90C4804882046FFF7F0
:1019800073F905B0F0BDC046DC050000DA6E00005A
:10199000260A00000002060104030500D80000200A
:1019A000DA00002076010020740100207801002078
:1019B00002E008C8121F08C1002AFAD17047704718
:1019C000002001E001C1121F002AFBD17047000076
:1019D0000000000000000000000000000000000007
:1019E00000000000000000000000000000000000F7
:1019F00001000000020000000300000004000000DD
:101A000006000000070000000800000009000000B8
:101A100000000000000000000000000000000000C6
:101A200001000000020000000300000004000000AC
:101A300000093D0000127A000024F40040865101A4
:101A400000366E0100093D0000093D0000093D001F
:101A5000000092012403B6044806D9076B09FB0A6B
:101A60008C0C1C0EAB0F3A11C8125514E2156E17F0
:101A7000F918831A0C1C931D1A1F9F202422A723D8
:101A80002825A8262728A4291F2B992C112E872F1B
:101A9000FC306E32DF334E35BA3625388D39F33AA5
:101AA000573CB83D173F7440CE4126437B44CD455B
:101AB0001D476A48B449FB4A404C814DC04EFB4F1C
:101AC000345169529B53CA54F6551E5743586459B2
:101AD000825A9D5BB45CC85DD75EE45FEC60F161E7
:101AE000F262EF63E964DE65D066BD67A7688C6962
:101AF0006E6A4B6B246CF96CCA6D976E5F6F2370C6
:101B0000E3709E7155720873B67360740575A6759F
:101B10004276D9766C77FB7785780A798A79067A66
:101B20007D7AEF7A5D7BC67B2A7C897CE47C3A7D7A
:101B30008A7DD67D1E7E607E9D7ED67E0A7F387F22
:101B4000627F877FA77FC27FD97FEA7FF67FFE7F94
:101B500000000000781B000800000020C800000002
:101B6000B0190008401C0008C8000020E004000074
:101B7000C019000800000000000000000000000084
:101B80000000000000000000000000000000000055
:101B90000000000000000000000000000000000045
:101BA0000000000000000000000000000000000035
:101BB0000000000000000000000000000000000025
:101BC0000000000000000000000000000000000015
:101BD0000000000000000000000000000000000005
:101BE00000000000000000000000000000000000F5
:101BF00000000000000000000000000000000000E5
:101C000000000000000000000000000000000000D4
:101C100000000000000000000000000000000000C4
:101C200000000000000000000000000000000000B4
:101C300000000000000000000100000000127A0017
:04000005080000C12E
:00000001FF
